{
  "_format": "hh-sol-artifact-1",
  "contractName": "WavePortal",
  "sourceName": "contracts/WavePortal.sol",
  "abi": [
    {
      "inputs": [],
      "stateMutability": "payable",
      "type": "constructor"
    },
    {
      "anonymous": false,
      "inputs": [
        {
          "indexed": true,
          "internalType": "address",
          "name": "from",
          "type": "address"
        },
        {
          "indexed": false,
          "internalType": "uint256",
          "name": "timestamp",
          "type": "uint256"
        },
        {
          "indexed": false,
          "internalType": "string",
          "name": "message",
          "type": "string"
        }
      ],
      "name": "NewWave",
      "type": "event"
    },
    {
      "anonymous": false,
      "inputs": [
        {
          "indexed": true,
          "internalType": "address",
          "name": "from",
          "type": "address"
        },
        {
          "indexed": false,
          "internalType": "uint256",
          "name": "timestamp",
          "type": "uint256"
        }
      ],
      "name": "NewWinner",
      "type": "event"
    },
    {
      "inputs": [],
      "name": "getAllWaves",
      "outputs": [
        {
          "components": [
            {
              "internalType": "address",
              "name": "waver",
              "type": "address"
            },
            {
              "internalType": "string",
              "name": "message",
              "type": "string"
            },
            {
              "internalType": "uint256",
              "name": "timestamp",
              "type": "uint256"
            }
          ],
          "internalType": "struct WavePortal.Wave[]",
          "name": "",
          "type": "tuple[]"
        }
      ],
      "stateMutability": "view",
      "type": "function"
    },
    {
      "inputs": [],
      "name": "getAllWinners",
      "outputs": [
        {
          "components": [
            {
              "internalType": "address",
              "name": "winner",
              "type": "address"
            },
            {
              "internalType": "uint256",
              "name": "timestamp",
              "type": "uint256"
            }
          ],
          "internalType": "struct WavePortal.Winner[]",
          "name": "",
          "type": "tuple[]"
        }
      ],
      "stateMutability": "view",
      "type": "function"
    },
    {
      "inputs": [],
      "name": "getTotalWaves",
      "outputs": [
        {
          "internalType": "uint256",
          "name": "",
          "type": "uint256"
        }
      ],
      "stateMutability": "view",
      "type": "function"
    },
    {
      "inputs": [
        {
          "internalType": "address",
          "name": "",
          "type": "address"
        }
      ],
      "name": "lastWavedAt",
      "outputs": [
        {
          "internalType": "uint256",
          "name": "",
          "type": "uint256"
        }
      ],
      "stateMutability": "view",
      "type": "function"
    },
    {
      "inputs": [
        {
          "internalType": "string",
          "name": "_message",
          "type": "string"
        }
      ],
      "name": "wave",
      "outputs": [],
      "stateMutability": "nonpayable",
      "type": "function"
    }
  ],
  "bytecode": "0x60806040526200004f6040518060400160405280601981526020017f57652068617665206265656e20636f6e737472756374656421000000000000008152506200007760201b6200084c1760201c565b606444426200005f9190620001c4565b6200006b919062000261565b60028190555062000308565b62000117816040516024016200008e919062000184565b6040516020818303038152906040527f41304fac000000000000000000000000000000000000000000000000000000007bffffffffffffffffffffffffffffffffffffffffffffffffffffffff19166020820180517bffffffffffffffffffffffffffffffffffffffffffffffffffffffff83818316178352505050506200011a60201b60201c565b50565b60008151905060006a636f6e736f6c652e6c6f679050602083016000808483855afa5050505050565b60006200015082620001a8565b6200015c8185620001b3565b93506200016e8185602086016200022b565b6200017981620002f7565b840191505092915050565b60006020820190508181036000830152620001a0818462000143565b905092915050565b600081519050919050565b600082825260208201905092915050565b6000620001d18262000221565b9150620001de8362000221565b9250827fffffffffffffffffffffffffffffffffffffffffffffffffffffffffffffffff0382111562000216576200021562000299565b5b828201905092915050565b6000819050919050565b60005b838110156200024b5780820151818401526020810190506200022e565b838111156200025b576000848401525b50505050565b60006200026e8262000221565b91506200027b8362000221565b9250826200028e576200028d620002c8565b5b828206905092915050565b7f4e487b7100000000000000000000000000000000000000000000000000000000600052601160045260246000fd5b7f4e487b7100000000000000000000000000000000000000000000000000000000600052601260045260246000fd5b6000601f19601f8301169050919050565b61142a80620003186000396000f3fe608060405234801561001057600080fd5b50600436106100575760003560e01c8063449d46c01461005c5780639a2cdc0814610078578063a42a466314610096578063bd43a908146100c6578063dc6b8627146100e4575b600080fd5b61007660048036038101906100719190610b8f565b610102565b005b61008061061b565b60405161008d9190611083565b60405180910390f35b6100b060048036038101906100ab9190610b66565b610624565b6040516100bd9190611083565b60405180910390f35b6100ce61063c565b6040516100db9190610f5d565b60405180910390f35b6100ec61078d565b6040516100f99190610f7f565b60405180910390f35b426002600560003373ffffffffffffffffffffffffffffffffffffffff1673ffffffffffffffffffffffffffffffffffffffff1681526020019081526020016000205461014f91906111d9565b1061018f576040517f08c379a000000000000000000000000000000000000000000000000000000000815260040161018690611063565b60405180910390fd5b42600560003373ffffffffffffffffffffffffffffffffffffffff1673ffffffffffffffffffffffffffffffffffffffff1681526020019081526020016000208190555060016000808282546101e591906111d9565b9250508190555061022b6040518060400160405280600d81526020017f2573206861732077617665642100000000000000000000000000000000000000815250336108e5565b600360405180606001604052803373ffffffffffffffffffffffffffffffffffffffff16815260200183815260200142815250908060018154018082558091505060019003906000526020600020906003020160009091909190915060008201518160000160006101000a81548173ffffffffffffffffffffffffffffffffffffffff021916908373ffffffffffffffffffffffffffffffffffffffff16021790555060208201518160010190805190602001906102ea929190610a46565b506040820151816002015550506064600254424461030891906111d9565b61031291906111d9565b61031c91906112df565b6002819055506103636040518060400160405280601681526020017f52616e646f6d20232067656e6572617465643a20256400000000000000000000815250600254610981565b6032600254116105c8576103ac6040518060400160405280600781526020017f257320776f6e2100000000000000000000000000000000000000000000000000815250336108e5565b600460405180604001604052803373ffffffffffffffffffffffffffffffffffffffff16815260200142815250908060018154018082558091505060019003906000526020600020906002020160009091909190915060008201518160000160006101000a81548173ffffffffffffffffffffffffffffffffffffffff021916908373ffffffffffffffffffffffffffffffffffffffff160217905550602082015181600101555050600066027ca57357c0009050478111156104a4576040517f08c379a000000000000000000000000000000000000000000000000000000000815260040161049b90611023565b60405180910390fd5b3373ffffffffffffffffffffffffffffffffffffffff16816040516104c890610f48565b60006040518083038185875af1925050503d8060008114610505576040519150601f19603f3d011682016040523d82523d6000602084013e61050a565b606091505b5050600160008291906101000a81548160ff02191690831515021790555050600160009054906101000a900460ff16610578576040517f08c379a000000000000000000000000000000000000000000000000000000000815260040161056f90611043565b60405180910390fd5b3373ffffffffffffffffffffffffffffffffffffffff167fe6b9e1659282e93b3a484308db69e5d1cac21051d45ee0fcb6f72399541cec86426040516105be9190611083565b60405180910390a2505b3373ffffffffffffffffffffffffffffffffffffffff167f5f7e16dc676677766a70e9c5628aa6c54ddb8b6e5188e2ae1e1f17f1ffbea716428360405161061092919061109e565b60405180910390a250565b60008054905090565b60056020528060005260406000206000915090505481565b60606003805480602002602001604051908101604052809291908181526020016000905b8282101561078457838290600052602060002090600302016040518060600160405290816000820160009054906101000a900473ffffffffffffffffffffffffffffffffffffffff1673ffffffffffffffffffffffffffffffffffffffff1673ffffffffffffffffffffffffffffffffffffffff1681526020016001820180546106e9906112ad565b80601f0160208091040260200160405190810160405280929190818152602001828054610715906112ad565b80156107625780601f1061073757610100808354040283529160200191610762565b820191906000526020600020905b81548152906001019060200180831161074557829003601f168201915b5050505050815260200160028201548152505081526020019060010190610660565b50505050905090565b60606004805480602002602001604051908101604052809291908181526020016000905b8282101561084357838290600052602060002090600202016040518060400160405290816000820160009054906101000a900473ffffffffffffffffffffffffffffffffffffffff1673ffffffffffffffffffffffffffffffffffffffff1673ffffffffffffffffffffffffffffffffffffffff168152602001600182015481525050815260200190600101906107b1565b50505050905090565b6108e2816040516024016108609190610fa1565b6040516020818303038152906040527f41304fac000000000000000000000000000000000000000000000000000000007bffffffffffffffffffffffffffffffffffffffffffffffffffffffff19166020820180517bffffffffffffffffffffffffffffffffffffffffffffffffffffffff8381831617835250505050610a1d565b50565b61097d82826040516024016108fb929190610fc3565b6040516020818303038152906040527f319af333000000000000000000000000000000000000000000000000000000007bffffffffffffffffffffffffffffffffffffffffffffffffffffffff19166020820180517bffffffffffffffffffffffffffffffffffffffffffffffffffffffff8381831617835250505050610a1d565b5050565b610a198282604051602401610997929190610ff3565b6040516020818303038152906040527f9710a9d0000000000000000000000000000000000000000000000000000000007bffffffffffffffffffffffffffffffffffffffffffffffffffffffff19166020820180517bffffffffffffffffffffffffffffffffffffffffffffffffffffffff8381831617835250505050610a1d565b5050565b60008151905060006a636f6e736f6c652e6c6f679050602083016000808483855afa5050505050565b828054610a52906112ad565b90600052602060002090601f016020900481019282610a745760008555610abb565b82601f10610a8d57805160ff1916838001178555610abb565b82800160010185558215610abb579182015b82811115610aba578251825591602001919060010190610a9f565b5b509050610ac89190610acc565b5090565b5b80821115610ae5576000816000905550600101610acd565b5090565b6000610afc610af7846110ff565b6110ce565b905082815260208101848484011115610b1457600080fd5b610b1f84828561126b565b509392505050565b600081359050610b36816113dd565b92915050565b600082601f830112610b4d57600080fd5b8135610b5d848260208601610ae9565b91505092915050565b600060208284031215610b7857600080fd5b6000610b8684828501610b27565b91505092915050565b600060208284031215610ba157600080fd5b600082013567ffffffffffffffff811115610bbb57600080fd5b610bc784828501610b3c565b91505092915050565b6000610bdc8383610eab565b905092915050565b6000610bf08383610efb565b60408301905092915050565b610c058161122f565b82525050565b610c148161122f565b82525050565b6000610c258261114f565b610c2f818561118a565b935083602082028501610c418561112f565b8060005b85811015610c7d5784840389528151610c5e8582610bd0565b9450610c6983611170565b925060208a01995050600181019050610c45565b50829750879550505050505092915050565b6000610c9a8261115a565b610ca4818561119b565b9350610caf8361113f565b8060005b83811015610ce0578151610cc78882610be4565b9750610cd28361117d565b925050600181019050610cb3565b5085935050505092915050565b6000610cf882611165565b610d0281856111b7565b9350610d1281856020860161127a565b610d1b816113cc565b840191505092915050565b6000610d3182611165565b610d3b81856111c8565b9350610d4b81856020860161127a565b610d54816113cc565b840191505092915050565b6000610d6c6034836111c8565b91507f547279696e6720746f207769746864726177206d6f7265206d6f6e657920746860008301527f616e2074686520636f6e7472616374206861732e0000000000000000000000006020830152604082019050919050565b6000610dd26027836111c8565b91507f4661696c656420746f207769746864726177206d6f6e65792066726f6d20636f60008301527f6e74726163742e000000000000000000000000000000000000000000000000006020830152604082019050919050565b6000610e386000836111ac565b9150600082019050919050565b6000610e526028836111c8565b91507f4d75737420776169742032207365636f6e6473206265666f726520776176696e60008301527f6720616761696e2e0000000000000000000000000000000000000000000000006020830152604082019050919050565b6000606083016000830151610ec36000860182610bfc565b5060208301518482036020860152610edb8282610ced565b9150506040830151610ef06040860182610f2a565b508091505092915050565b604082016000820151610f116000850182610bfc565b506020820151610f246020850182610f2a565b50505050565b610f3381611261565b82525050565b610f4281611261565b82525050565b6000610f5382610e2b565b9150819050919050565b60006020820190508181036000830152610f778184610c1a565b905092915050565b60006020820190508181036000830152610f998184610c8f565b905092915050565b60006020820190508181036000830152610fbb8184610d26565b905092915050565b60006040820190508181036000830152610fdd8185610d26565b9050610fec6020830184610c0b565b9392505050565b6000604082019050818103600083015261100d8185610d26565b905061101c6020830184610f39565b9392505050565b6000602082019050818103600083015261103c81610d5f565b9050919050565b6000602082019050818103600083015261105c81610dc5565b9050919050565b6000602082019050818103600083015261107c81610e45565b9050919050565b60006020820190506110986000830184610f39565b92915050565b60006040820190506110b36000830185610f39565b81810360208301526110c58184610d26565b90509392505050565b6000604051905081810181811067ffffffffffffffff821117156110f5576110f461139d565b5b8060405250919050565b600067ffffffffffffffff82111561111a5761111961139d565b5b601f19601f8301169050602081019050919050565b6000819050602082019050919050565b6000819050602082019050919050565b600081519050919050565b600081519050919050565b600081519050919050565b6000602082019050919050565b6000602082019050919050565b600082825260208201905092915050565b600082825260208201905092915050565b600081905092915050565b600082825260208201905092915050565b600082825260208201905092915050565b60006111e482611261565b91506111ef83611261565b9250827fffffffffffffffffffffffffffffffffffffffffffffffffffffffffffffffff0382111561122457611223611310565b5b828201905092915050565b600061123a82611241565b9050919050565b600073ffffffffffffffffffffffffffffffffffffffff82169050919050565b6000819050919050565b82818337600083830152505050565b60005b8381101561129857808201518184015260208101905061127d565b838111156112a7576000848401525b50505050565b600060028204905060018216806112c557607f821691505b602082108114156112d9576112d861136e565b5b50919050565b60006112ea82611261565b91506112f583611261565b9250826113055761130461133f565b5b828206905092915050565b7f4e487b7100000000000000000000000000000000000000000000000000000000600052601160045260246000fd5b7f4e487b7100000000000000000000000000000000000000000000000000000000600052601260045260246000fd5b7f4e487b7100000000000000000000000000000000000000000000000000000000600052602260045260246000fd5b7f4e487b7100000000000000000000000000000000000000000000000000000000600052604160045260246000fd5b6000601f19601f8301169050919050565b6113e68161122f565b81146113f157600080fd5b5056fea26469706673582212208e9f3ea102d7affdc96e374468aec5b3f7fb59df33f49ea03c1c01e006a8612c64736f6c63430008000033",
  "linkReferences": {},
  "deployedLinkReferences": {}
}